{
  "_format": "hh-sol-artifact-1",
  "contractName": "TrustMe",
  "sourceName": "contracts/TrustMe.sol",
  "abi": [
    {
      "inputs": [],
      "name": "CannotTradeSameToken",
      "type": "error"
    },
    {
      "inputs": [],
      "name": "CannotTradeWithSelf",
      "type": "error"
    },
    {
      "inputs": [],
      "name": "IncorrectAmoutOfETHTransferred",
      "type": "error"
    },
    {
      "inputs": [],
      "name": "InsufficientBalance",
      "type": "error"
    },
    {
      "inputs": [],
      "name": "InvalidAddress",
      "type": "error"
    },
    {
      "inputs": [],
      "name": "InvalidInputs",
      "type": "error"
    },
    {
      "inputs": [],
      "name": "InvalidNFTInput",
      "type": "error"
    },
    {
      "inputs": [],
      "name": "InvalidTokenInput",
      "type": "error"
    },
    {
      "inputs": [],
      "name": "NftNotApproved",
      "type": "error"
    },
    {
      "inputs": [],
      "name": "NotNftOwner",
      "type": "error"
    },
    {
      "inputs": [],
      "name": "OnlyBuyer",
      "type": "error"
    },
    {
      "inputs": [],
      "name": "OnlySeller",
      "type": "error"
    },
    {
      "inputs": [],
      "name": "OnlySellerOrBuyer",
      "type": "error"
    },
    {
      "inputs": [],
      "name": "TradeIsExpired",
      "type": "error"
    },
    {
      "inputs": [],
      "name": "TradeIsNotExpired",
      "type": "error"
    },
    {
      "inputs": [],
      "name": "TradeIsNotPending",
      "type": "error"
    },
    {
      "anonymous": false,
      "inputs": [
        {
          "indexed": true,
          "internalType": "uint256",
          "name": "tradeID",
          "type": "uint256"
        },
        {
          "indexed": true,
          "internalType": "address",
          "name": "seller",
          "type": "address"
        },
        {
          "indexed": true,
          "internalType": "address",
          "name": "buyer",
          "type": "address"
        }
      ],
      "name": "TradeCanceled",
      "type": "event"
    },
    {
      "anonymous": false,
      "inputs": [
        {
          "indexed": true,
          "internalType": "uint256",
          "name": "tradeID",
          "type": "uint256"
        },
        {
          "indexed": true,
          "internalType": "address",
          "name": "seller",
          "type": "address"
        },
        {
          "indexed": true,
          "internalType": "address",
          "name": "buyer",
          "type": "address"
        }
      ],
      "name": "TradeConfirmed",
      "type": "event"
    },
    {
      "anonymous": false,
      "inputs": [
        {
          "indexed": true,
          "internalType": "uint256",
          "name": "tradeID",
          "type": "uint256"
        },
        {
          "indexed": true,
          "internalType": "address",
          "name": "seller",
          "type": "address"
        },
        {
          "indexed": true,
          "internalType": "address",
          "name": "buyer",
          "type": "address"
        }
      ],
      "name": "TradeCreated",
      "type": "event"
    },
    {
      "anonymous": false,
      "inputs": [
        {
          "indexed": true,
          "internalType": "uint256",
          "name": "tradeID",
          "type": "uint256"
        },
        {
          "indexed": true,
          "internalType": "address",
          "name": "seller",
          "type": "address"
        },
        {
          "indexed": true,
          "internalType": "address",
          "name": "buyer",
          "type": "address"
        }
      ],
      "name": "TradeExpired",
      "type": "event"
    },
    {
      "anonymous": false,
      "inputs": [
        {
          "indexed": true,
          "internalType": "uint256",
          "name": "tradeID",
          "type": "uint256"
        },
        {
          "indexed": true,
          "internalType": "address",
          "name": "seller",
          "type": "address"
        },
        {
          "indexed": true,
          "internalType": "address",
          "name": "buyer",
          "type": "address"
        }
      ],
      "name": "TradeWithdrawn",
      "type": "event"
    },
    {
      "inputs": [
        {
          "components": [
            {
              "internalType": "uint256",
              "name": "tradeId",
              "type": "uint256"
            },
            {
              "internalType": "address",
              "name": "seller",
              "type": "address"
            },
            {
              "internalType": "address",
              "name": "buyer",
              "type": "address"
            },
            {
              "components": [
                {
                  "internalType": "address",
                  "name": "addressNFTToSell",
                  "type": "address"
                },
                {
                  "internalType": "uint256",
                  "name": "tokenIdNFTToSell",
                  "type": "uint256"
                },
                {
                  "internalType": "address",
                  "name": "addressNFTToBuy",
                  "type": "address"
                },
                {
                  "internalType": "uint256",
                  "name": "tokenIdNFTToBuy",
                  "type": "uint256"
                }
              ],
              "internalType": "struct TradeLib.NFT",
              "name": "nft",
              "type": "tuple"
            },
            {
              "components": [
                {
                  "internalType": "address",
                  "name": "tokenToSell",
                  "type": "address"
                },
                {
                  "internalType": "uint256",
                  "name": "amountOfTokenToSell",
                  "type": "uint256"
                },
                {
                  "internalType": "address",
                  "name": "tokenToBuy",
                  "type": "address"
                },
                {
                  "internalType": "uint256",
                  "name": "amountOfTokenToBuy",
                  "type": "uint256"
                }
              ],
              "internalType": "struct TradeLib.Token",
              "name": "token",
              "type": "tuple"
            },
            {
              "components": [
                {
                  "internalType": "uint256",
                  "name": "amountOfETHToSell",
                  "type": "uint256"
                },
                {
                  "internalType": "uint256",
                  "name": "amountOfETHToBuy",
                  "type": "uint256"
                }
              ],
              "internalType": "struct TradeLib.Eth",
              "name": "eth",
              "type": "tuple"
            },
            {
              "internalType": "uint256",
              "name": "deadline",
              "type": "uint256"
            },
            {
              "internalType": "uint256",
              "name": "dateCreated",
              "type": "uint256"
            },
            {
              "internalType": "enum TradeLib.TradeStatus",
              "name": "status",
              "type": "uint8"
            }
          ],
          "internalType": "struct TradeLib.Trade",
          "name": "transactionInput",
          "type": "tuple"
        }
      ],
      "name": "addTrade",
      "outputs": [],
      "stateMutability": "payable",
      "type": "function"
    },
    {
      "inputs": [
        {
          "internalType": "uint256",
          "name": "_tradeID",
          "type": "uint256"
        }
      ],
      "name": "cancelTrade",
      "outputs": [],
      "stateMutability": "nonpayable",
      "type": "function"
    },
    {
      "inputs": [],
      "name": "checkExpiredTrades",
      "outputs": [],
      "stateMutability": "nonpayable",
      "type": "function"
    },
    {
      "inputs": [
        {
          "internalType": "uint256",
          "name": "_tradeID",
          "type": "uint256"
        }
      ],
      "name": "confirmTrade",
      "outputs": [],
      "stateMutability": "payable",
      "type": "function"
    },
    {
      "inputs": [],
      "name": "getPendingTradesIDs",
      "outputs": [
        {
          "internalType": "uint256[]",
          "name": "",
          "type": "uint256[]"
        }
      ],
      "stateMutability": "view",
      "type": "function"
    },
    {
      "inputs": [
        {
          "internalType": "uint256",
          "name": "_tradeID",
          "type": "uint256"
        }
      ],
      "name": "getTrade",
      "outputs": [
        {
          "components": [
            {
              "internalType": "uint256",
              "name": "tradeId",
              "type": "uint256"
            },
            {
              "internalType": "address",
              "name": "seller",
              "type": "address"
            },
            {
              "internalType": "address",
              "name": "buyer",
              "type": "address"
            },
            {
              "components": [
                {
                  "internalType": "address",
                  "name": "addressNFTToSell",
                  "type": "address"
                },
                {
                  "internalType": "uint256",
                  "name": "tokenIdNFTToSell",
                  "type": "uint256"
                },
                {
                  "internalType": "address",
                  "name": "addressNFTToBuy",
                  "type": "address"
                },
                {
                  "internalType": "uint256",
                  "name": "tokenIdNFTToBuy",
                  "type": "uint256"
                }
              ],
              "internalType": "struct TradeLib.NFT",
              "name": "nft",
              "type": "tuple"
            },
            {
              "components": [
                {
                  "internalType": "address",
                  "name": "tokenToSell",
                  "type": "address"
                },
                {
                  "internalType": "uint256",
                  "name": "amountOfTokenToSell",
                  "type": "uint256"
                },
                {
                  "internalType": "address",
                  "name": "tokenToBuy",
                  "type": "address"
                },
                {
                  "internalType": "uint256",
                  "name": "amountOfTokenToBuy",
                  "type": "uint256"
                }
              ],
              "internalType": "struct TradeLib.Token",
              "name": "token",
              "type": "tuple"
            },
            {
              "components": [
                {
                  "internalType": "uint256",
                  "name": "amountOfETHToSell",
                  "type": "uint256"
                },
                {
                  "internalType": "uint256",
                  "name": "amountOfETHToBuy",
                  "type": "uint256"
                }
              ],
              "internalType": "struct TradeLib.Eth",
              "name": "eth",
              "type": "tuple"
            },
            {
              "internalType": "uint256",
              "name": "deadline",
              "type": "uint256"
            },
            {
              "internalType": "uint256",
              "name": "dateCreated",
              "type": "uint256"
            },
            {
              "internalType": "enum TradeLib.TradeStatus",
              "name": "status",
              "type": "uint8"
            }
          ],
          "internalType": "struct TradeLib.Trade",
          "name": "",
          "type": "tuple"
        }
      ],
      "stateMutability": "view",
      "type": "function"
    },
    {
      "inputs": [
        {
          "internalType": "uint256",
          "name": "_tradeID",
          "type": "uint256"
        }
      ],
      "name": "getTradeStatus",
      "outputs": [
        {
          "internalType": "enum TradeLib.TradeStatus",
          "name": "",
          "type": "uint8"
        }
      ],
      "stateMutability": "view",
      "type": "function"
    },
    {
      "inputs": [
        {
          "internalType": "address",
          "name": "_user",
          "type": "address"
        }
      ],
      "name": "getTradesIDsByUser",
      "outputs": [
        {
          "internalType": "uint256[]",
          "name": "",
          "type": "uint256[]"
        }
      ],
      "stateMutability": "view",
      "type": "function"
    },
    {
      "inputs": [
        {
          "internalType": "address",
          "name": "",
          "type": "address"
        },
        {
          "internalType": "address",
          "name": "",
          "type": "address"
        },
        {
          "internalType": "uint256",
          "name": "",
          "type": "uint256"
        },
        {
          "internalType": "bytes",
          "name": "",
          "type": "bytes"
        }
      ],
      "name": "onERC721Received",
      "outputs": [
        {
          "internalType": "bytes4",
          "name": "",
          "type": "bytes4"
        }
      ],
      "stateMutability": "nonpayable",
      "type": "function"
    },
    {
      "inputs": [
        {
          "internalType": "uint256",
          "name": "",
          "type": "uint256"
        }
      ],
      "name": "pendingTradesIDs",
      "outputs": [
        {
          "internalType": "uint256",
          "name": "",
          "type": "uint256"
        }
      ],
      "stateMutability": "view",
      "type": "function"
    },
    {
      "inputs": [
        {
          "internalType": "uint256",
          "name": "",
          "type": "uint256"
        }
      ],
      "name": "tradeIDToTrade",
      "outputs": [
        {
          "internalType": "uint256",
          "name": "tradeId",
          "type": "uint256"
        },
        {
          "internalType": "address",
          "name": "seller",
          "type": "address"
        },
        {
          "internalType": "address",
          "name": "buyer",
          "type": "address"
        },
        {
          "components": [
            {
              "internalType": "address",
              "name": "addressNFTToSell",
              "type": "address"
            },
            {
              "internalType": "uint256",
              "name": "tokenIdNFTToSell",
              "type": "uint256"
            },
            {
              "internalType": "address",
              "name": "addressNFTToBuy",
              "type": "address"
            },
            {
              "internalType": "uint256",
              "name": "tokenIdNFTToBuy",
              "type": "uint256"
            }
          ],
          "internalType": "struct TradeLib.NFT",
          "name": "nft",
          "type": "tuple"
        },
        {
          "components": [
            {
              "internalType": "address",
              "name": "tokenToSell",
              "type": "address"
            },
            {
              "internalType": "uint256",
              "name": "amountOfTokenToSell",
              "type": "uint256"
            },
            {
              "internalType": "address",
              "name": "tokenToBuy",
              "type": "address"
            },
            {
              "internalType": "uint256",
              "name": "amountOfTokenToBuy",
              "type": "uint256"
            }
          ],
          "internalType": "struct TradeLib.Token",
          "name": "token",
          "type": "tuple"
        },
        {
          "components": [
            {
              "internalType": "uint256",
              "name": "amountOfETHToSell",
              "type": "uint256"
            },
            {
              "internalType": "uint256",
              "name": "amountOfETHToBuy",
              "type": "uint256"
            }
          ],
          "internalType": "struct TradeLib.Eth",
          "name": "eth",
          "type": "tuple"
        },
        {
          "internalType": "uint256",
          "name": "deadline",
          "type": "uint256"
        },
        {
          "internalType": "uint256",
          "name": "dateCreated",
          "type": "uint256"
        },
        {
          "internalType": "enum TradeLib.TradeStatus",
          "name": "status",
          "type": "uint8"
        }
      ],
      "stateMutability": "view",
      "type": "function"
    },
    {
      "inputs": [
        {
          "internalType": "uint256",
          "name": "",
          "type": "uint256"
        }
      ],
      "name": "tradeIdToETHFromSeller",
      "outputs": [
        {
          "internalType": "uint256",
          "name": "",
          "type": "uint256"
        }
      ],
      "stateMutability": "view",
      "type": "function"
    },
    {
      "inputs": [
        {
          "internalType": "address",
          "name": "",
          "type": "address"
        },
        {
          "internalType": "uint256",
          "name": "",
          "type": "uint256"
        }
      ],
      "name": "userToTradesIDs",
      "outputs": [
        {
          "internalType": "uint256",
          "name": "",
          "type": "uint256"
        }
      ],
      "stateMutability": "view",
      "type": "function"
    },
    {
      "inputs": [
        {
          "internalType": "uint256",
          "name": "_tradeID",
          "type": "uint256"
        }
      ],
      "name": "withdraw",
      "outputs": [],
      "stateMutability": "nonpayable",
      "type": "function"
    }
  ],
  "bytecode": "0x608060405234801561001057600080fd5b50614b0a806100206000396000f3fe6080604052600436106100dd5760003560e01c80633cbc720b1161007f578063a25e4fb211610059578063a25e4fb2146102b4578063b36e88ba146102f9578063f3c8dd2814610336578063f5ff356714610373576100dd565b80633cbc720b1461021e5780636a4167271461025b5780639ec0507f14610298576100dd565b806317166c1d116100bb57806317166c1d1461015f5780632db25e051461017b5780632e1a7d4d146101b85780633628f397146101e1576100dd565b806304ecba17146100e257806309ec6cc7146100f9578063150b7a0214610122575b600080fd5b3480156100ee57600080fd5b506100f761039e565b005b34801561010557600080fd5b50610120600480360381019061011b9190613b65565b610500565b005b34801561012e57600080fd5b5061014960048036038101906101449190613d36565b610b54565b6040516101569190613df4565b60405180910390f35b6101796004803603810190610174919061405c565b610b68565b005b34801561018757600080fd5b506101a2600480360381019061019d9190613b65565b611159565b6040516101af91906142b2565b60405180910390f35b3480156101c457600080fd5b506101df60048036038101906101da9190613b65565b61145c565b005b3480156101ed57600080fd5b5061020860048036038101906102039190613b65565b611b00565b60405161021591906142dd565b60405180910390f35b34801561022a57600080fd5b5061024560048036038101906102409190613b65565b611b18565b60405161025291906142dd565b60405180910390f35b34801561026757600080fd5b50610282600480360381019061027d91906142f8565b611b3c565b60405161028f91906142dd565b60405180910390f35b6102b260048036038101906102ad9190613b65565b611b6d565b005b3480156102c057600080fd5b506102db60048036038101906102d69190613b65565b612516565b6040516102f09998979695949392919061442f565b60405180910390f35b34801561030557600080fd5b50610320600480360381019061031b9190613b65565b612763565b60405161032d91906144bf565b60405180910390f35b34801561034257600080fd5b5061035d600480360381019061035891906144da565b612790565b60405161036a91906145b6565b60405180910390f35b34801561037f57600080fd5b50610388612826565b60405161039591906145b6565b60405180910390f35b600060016003805490506103b29190614607565b90505b600081106104fd57600060016000600384815481106103d7576103d661463b565b5b9060005260206000200154815260200190815260200160002090504281600d0154116104e957600381600f0160006101000a81548160ff0219169083600481111561042557610424614181565b5b02179055506104338261287e565b8060020160009054906101000a900473ffffffffffffffffffffffffffffffffffffffff1673ffffffffffffffffffffffffffffffffffffffff168160010160009054906101000a900473ffffffffffffffffffffffffffffffffffffffff1673ffffffffffffffffffffffffffffffffffffffff1682600001547ffd7c45a041dff86f1992d67f3be178d8c527a53bef9d9c6fe1901411b9da156460405160405180910390a4600082036104e857506104fd565b5b5080806104f59061466a565b9150506103b5565b50565b600060016000838152602001908152602001600020905060003390506108078260405180610120016040529081600082015481526020016001820160009054906101000a900473ffffffffffffffffffffffffffffffffffffffff1673ffffffffffffffffffffffffffffffffffffffff1673ffffffffffffffffffffffffffffffffffffffff1681526020016002820160009054906101000a900473ffffffffffffffffffffffffffffffffffffffff1673ffffffffffffffffffffffffffffffffffffffff1673ffffffffffffffffffffffffffffffffffffffff168152602001600382016040518060800160405290816000820160009054906101000a900473ffffffffffffffffffffffffffffffffffffffff1673ffffffffffffffffffffffffffffffffffffffff1673ffffffffffffffffffffffffffffffffffffffff168152602001600182015481526020016002820160009054906101000a900473ffffffffffffffffffffffffffffffffffffffff1673ffffffffffffffffffffffffffffffffffffffff1673ffffffffffffffffffffffffffffffffffffffff1681526020016003820154815250508152602001600782016040518060800160405290816000820160009054906101000a900473ffffffffffffffffffffffffffffffffffffffff1673ffffffffffffffffffffffffffffffffffffffff1673ffffffffffffffffffffffffffffffffffffffff168152602001600182015481526020016002820160009054906101000a900473ffffffffffffffffffffffffffffffffffffffff1673ffffffffffffffffffffffffffffffffffffffff1673ffffffffffffffffffffffffffffffffffffffff1681526020016003820154815250508152602001600b8201604051806040016040529081600082015481526020016001820154815250508152602001600d8201548152602001600e8201548152602001600f820160009054906101000a900460ff1660048111156107eb576107ea614181565b5b60048111156107fd576107fc614181565b5b8152505082612937565b600082600701600101541115610895576108948260010160009054906101000a900473ffffffffffffffffffffffffffffffffffffffff1683600701600101548460070160000160009054906101000a900473ffffffffffffffffffffffffffffffffffffffff1673ffffffffffffffffffffffffffffffffffffffff166129c09092919063ffffffff16565b5b600073ffffffffffffffffffffffffffffffffffffffff168260030160000160009054906101000a900473ffffffffffffffffffffffffffffffffffffffff1673ffffffffffffffffffffffffffffffffffffffff16146109b2578160030160000160009054906101000a900473ffffffffffffffffffffffffffffffffffffffff1673ffffffffffffffffffffffffffffffffffffffff166342842e0e308460010160009054906101000a900473ffffffffffffffffffffffffffffffffffffffff1685600301600101546040518463ffffffff1660e01b815260040161097f93929190614693565b600060405180830381600087803b15801561099957600080fd5b505af11580156109ad573d6000803e3d6000fd5b505050505b600082600b01600001541115610a35578160010160009054906101000a900473ffffffffffffffffffffffffffffffffffffffff1673ffffffffffffffffffffffffffffffffffffffff166108fc83600b01600001549081150290604051600060405180830381858888f19350505050158015610a33573d6000803e3d6000fd5b505b81600b0160000154600460008581526020019081526020016000206000828254610a5f9190614607565b92505081905550600282600f0160006101000a81548160ff02191690836004811115610a8e57610a8d614181565b5b0217905550610aa8610aa38360000154612a46565b61287e565b8160020160009054906101000a900473ffffffffffffffffffffffffffffffffffffffff1673ffffffffffffffffffffffffffffffffffffffff168260010160009054906101000a900473ffffffffffffffffffffffffffffffffffffffff1673ffffffffffffffffffffffffffffffffffffffff1683600001547fb56d73308dd5ed79f768968659e0e7cc99ba3373f870b129d17e28cb2ac6d95960405160405180910390a4505050565b600063150b7a0260e01b9050949350505050565b610b728134612aab565b610b7c6002612c6e565b81600001818152505033816020019073ffffffffffffffffffffffffffffffffffffffff16908173ffffffffffffffffffffffffffffffffffffffff168152505060008161010001906004811115610bd757610bd6614181565b5b90816004811115610beb57610bea614181565b5b815250508060c0015142610bff91906146ca565b8160c0018181525050428160e0018181525050600081608001516000015190506000826060015160000151905060008360800151602001511115610c7357610c7233308560800151602001518573ffffffffffffffffffffffffffffffffffffffff16612c7c909392919063ffffffff16565b5b600073ffffffffffffffffffffffffffffffffffffffff1683606001516000015173ffffffffffffffffffffffffffffffffffffffff1614610d27578073ffffffffffffffffffffffffffffffffffffffff166342842e0e33308660600151602001516040518463ffffffff1660e01b8152600401610cf493929190614693565b600060405180830381600087803b158015610d0e57600080fd5b505af1158015610d22573d6000803e3d6000fd5b505050505b3460046000610d366002612c6e565b81526020019081526020016000206000828254610d5391906146ca565b925050819055508260016000610d696002612c6e565b81526020019081526020016000206000820151816000015560208201518160010160006101000a81548173ffffffffffffffffffffffffffffffffffffffff021916908373ffffffffffffffffffffffffffffffffffffffff16021790555060408201518160020160006101000a81548173ffffffffffffffffffffffffffffffffffffffff021916908373ffffffffffffffffffffffffffffffffffffffff16021790555060608201518160030160008201518160000160006101000a81548173ffffffffffffffffffffffffffffffffffffffff021916908373ffffffffffffffffffffffffffffffffffffffff1602179055506020820151816001015560408201518160020160006101000a81548173ffffffffffffffffffffffffffffffffffffffff021916908373ffffffffffffffffffffffffffffffffffffffff16021790555060608201518160030155505060808201518160070160008201518160000160006101000a81548173ffffffffffffffffffffffffffffffffffffffff021916908373ffffffffffffffffffffffffffffffffffffffff1602179055506020820151816001015560408201518160020160006101000a81548173ffffffffffffffffffffffffffffffffffffffff021916908373ffffffffffffffffffffffffffffffffffffffff16021790555060608201518160030155505060a082015181600b016000820151816000015560208201518160010155505060c082015181600d015560e082015181600e015561010082015181600f0160006101000a81548160ff02191690836004811115610fc857610fc7614181565b5b02179055509050506000803373ffffffffffffffffffffffffffffffffffffffff1673ffffffffffffffffffffffffffffffffffffffff1681526020019081526020016000206110186002612c6e565b9080600181540180825580915050600190039060005260206000200160009091909190915055600080846040015173ffffffffffffffffffffffffffffffffffffffff1673ffffffffffffffffffffffffffffffffffffffff16815260200190815260200160002061108a6002612c6e565b908060018154018082558091505060019003906000526020600020016000909190919091505560036110bc6002612c6e565b9080600181540180825580915050600190039060005260206000200160009091909190915055826040015173ffffffffffffffffffffffffffffffffffffffff163373ffffffffffffffffffffffffffffffffffffffff1661111e6002612c6e565b7f9cf777ef8d920853772227176d5a18d6b577d1644b2b02949641f93317a21b2560405160405180910390a46111546002612d05565b505050565b6111616139bd565b6001600083815260200190815260200160002060405180610120016040529081600082015481526020016001820160009054906101000a900473ffffffffffffffffffffffffffffffffffffffff1673ffffffffffffffffffffffffffffffffffffffff1673ffffffffffffffffffffffffffffffffffffffff1681526020016002820160009054906101000a900473ffffffffffffffffffffffffffffffffffffffff1673ffffffffffffffffffffffffffffffffffffffff1673ffffffffffffffffffffffffffffffffffffffff168152602001600382016040518060800160405290816000820160009054906101000a900473ffffffffffffffffffffffffffffffffffffffff1673ffffffffffffffffffffffffffffffffffffffff1673ffffffffffffffffffffffffffffffffffffffff168152602001600182015481526020016002820160009054906101000a900473ffffffffffffffffffffffffffffffffffffffff1673ffffffffffffffffffffffffffffffffffffffff1673ffffffffffffffffffffffffffffffffffffffff1681526020016003820154815250508152602001600782016040518060800160405290816000820160009054906101000a900473ffffffffffffffffffffffffffffffffffffffff1673ffffffffffffffffffffffffffffffffffffffff1673ffffffffffffffffffffffffffffffffffffffff168152602001600182015481526020016002820160009054906101000a900473ffffffffffffffffffffffffffffffffffffffff1673ffffffffffffffffffffffffffffffffffffffff1673ffffffffffffffffffffffffffffffffffffffff1681526020016003820154815250508152602001600b8201604051806040016040529081600082015481526020016001820154815250508152602001600d8201548152602001600e8201548152602001600f820160009054906101000a900460ff16600481111561143f5761143e614181565b5b600481111561145157611450614181565b5b815250509050919050565b600060016000838152602001908152602001600020905060003390506117638260405180610120016040529081600082015481526020016001820160009054906101000a900473ffffffffffffffffffffffffffffffffffffffff1673ffffffffffffffffffffffffffffffffffffffff1673ffffffffffffffffffffffffffffffffffffffff1681526020016002820160009054906101000a900473ffffffffffffffffffffffffffffffffffffffff1673ffffffffffffffffffffffffffffffffffffffff1673ffffffffffffffffffffffffffffffffffffffff168152602001600382016040518060800160405290816000820160009054906101000a900473ffffffffffffffffffffffffffffffffffffffff1673ffffffffffffffffffffffffffffffffffffffff1673ffffffffffffffffffffffffffffffffffffffff168152602001600182015481526020016002820160009054906101000a900473ffffffffffffffffffffffffffffffffffffffff1673ffffffffffffffffffffffffffffffffffffffff1673ffffffffffffffffffffffffffffffffffffffff1681526020016003820154815250508152602001600782016040518060800160405290816000820160009054906101000a900473ffffffffffffffffffffffffffffffffffffffff1673ffffffffffffffffffffffffffffffffffffffff1673ffffffffffffffffffffffffffffffffffffffff168152602001600182015481526020016002820160009054906101000a900473ffffffffffffffffffffffffffffffffffffffff1673ffffffffffffffffffffffffffffffffffffffff1673ffffffffffffffffffffffffffffffffffffffff1681526020016003820154815250508152602001600b8201604051806040016040529081600082015481526020016001820154815250508152602001600d8201548152602001600e8201548152602001600f820160009054906101000a900460ff16600481111561174757611746614181565b5b600481111561175957611758614181565b5b8152505082612d1b565b81600b0160000154471080611791575081600b01600001546004600085815260200190815260200160002054105b156117c8576040517ff4d678b800000000000000000000000000000000000000000000000000000000815260040160405180910390fd5b600082600701600101541115611856576118558260010160009054906101000a900473ffffffffffffffffffffffffffffffffffffffff1683600701600101548460070160000160009054906101000a900473ffffffffffffffffffffffffffffffffffffffff1673ffffffffffffffffffffffffffffffffffffffff166129c09092919063ffffffff16565b5b600073ffffffffffffffffffffffffffffffffffffffff168260030160000160009054906101000a900473ffffffffffffffffffffffffffffffffffffffff1673ffffffffffffffffffffffffffffffffffffffff1614611973578160030160000160009054906101000a900473ffffffffffffffffffffffffffffffffffffffff1673ffffffffffffffffffffffffffffffffffffffff166342842e0e308460010160009054906101000a900473ffffffffffffffffffffffffffffffffffffffff1685600301600101546040518463ffffffff1660e01b815260040161194093929190614693565b600060405180830381600087803b15801561195a57600080fd5b505af115801561196e573d6000803e3d6000fd5b505050505b600082600b016000015411156119f6578160010160009054906101000a900473ffffffffffffffffffffffffffffffffffffffff1673ffffffffffffffffffffffffffffffffffffffff166108fc83600b01600001549081150290604051600060405180830381858888f193505050501580156119f4573d6000803e3d6000fd5b505b81600b0160000154600460008581526020019081526020016000206000828254611a209190614607565b92505081905550600482600f0160006101000a81548160ff02191690836004811115611a4f57611a4e614181565b5b02179055508160020160009054906101000a900473ffffffffffffffffffffffffffffffffffffffff1673ffffffffffffffffffffffffffffffffffffffff168260010160009054906101000a900473ffffffffffffffffffffffffffffffffffffffff1673ffffffffffffffffffffffffffffffffffffffff1683600001547f54f902d6da0053700f4640a4799f5a079d7cf1e8bd83773f09e7cbc4afe07f3260405160405180910390a4505050565b60046020528060005260406000206000915090505481565b60038181548110611b2857600080fd5b906000526020600020016000915090505481565b60006020528160005260406000208181548110611b5857600080fd5b90600052602060002001600091509150505481565b60006001600083815260200190815260200160002060405180610120016040529081600082015481526020016001820160009054906101000a900473ffffffffffffffffffffffffffffffffffffffff1673ffffffffffffffffffffffffffffffffffffffff1673ffffffffffffffffffffffffffffffffffffffff1681526020016002820160009054906101000a900473ffffffffffffffffffffffffffffffffffffffff1673ffffffffffffffffffffffffffffffffffffffff1673ffffffffffffffffffffffffffffffffffffffff168152602001600382016040518060800160405290816000820160009054906101000a900473ffffffffffffffffffffffffffffffffffffffff1673ffffffffffffffffffffffffffffffffffffffff1673ffffffffffffffffffffffffffffffffffffffff168152602001600182015481526020016002820160009054906101000a900473ffffffffffffffffffffffffffffffffffffffff1673ffffffffffffffffffffffffffffffffffffffff1673ffffffffffffffffffffffffffffffffffffffff1681526020016003820154815250508152602001600782016040518060800160405290816000820160009054906101000a900473ffffffffffffffffffffffffffffffffffffffff1673ffffffffffffffffffffffffffffffffffffffff1673ffffffffffffffffffffffffffffffffffffffff168152602001600182015481526020016002820160009054906101000a900473ffffffffffffffffffffffffffffffffffffffff1673ffffffffffffffffffffffffffffffffffffffff1673ffffffffffffffffffffffffffffffffffffffff1681526020016003820154815250508152602001600b8201604051806040016040529081600082015481526020016001820154815250508152602001600d8201548152602001600e8201548152602001600f820160009054906101000a900460ff166004811115611e4d57611e4c614181565b5b6004811115611e5f57611e5e614181565b5b81525050905060006004811115611e7957611e78614181565b5b8161010001516004811115611e9157611e90614181565b5b14611ec8576040517f1cf3d4b400000000000000000000000000000000000000000000000000000000815260040160405180910390fd5b60003390506000349050611edd838383612d9f565b60008360800151606001511115611f3057611f2f33846020015185608001516060015186608001516040015173ffffffffffffffffffffffffffffffffffffffff16612c7c909392919063ffffffff16565b5b600073ffffffffffffffffffffffffffffffffffffffff1683606001516040015173ffffffffffffffffffffffffffffffffffffffff1614611ff05782606001516040015173ffffffffffffffffffffffffffffffffffffffff166342842e0e3385602001518660600151606001516040518463ffffffff1660e01b8152600401611fbd93929190614693565b600060405180830381600087803b158015611fd757600080fd5b505af1158015611feb573d6000803e3d6000fd5b505050505b60008360a0015160200151111561204d57826020015173ffffffffffffffffffffffffffffffffffffffff166108fc349081150290604051600060405180830381858888f1935050505015801561204b573d6000803e3d6000fd5b505b6000836080015160200151111561209e5761209d836040015184608001516020015185608001516000015173ffffffffffffffffffffffffffffffffffffffff166129c09092919063ffffffff16565b5b600073ffffffffffffffffffffffffffffffffffffffff1683606001516000015173ffffffffffffffffffffffffffffffffffffffff161461215e5782606001516000015173ffffffffffffffffffffffffffffffffffffffff166342842e0e3085604001518660600151602001516040518463ffffffff1660e01b815260040161212b93929190614693565b600060405180830381600087803b15801561214557600080fd5b505af1158015612159573d6000803e3d6000fd5b505050505b60008360a001516000015111156121c357826040015173ffffffffffffffffffffffffffffffffffffffff166108fc8460a00151600001519081150290604051600060405180830381858888f193505050501580156121c1573d6000803e3d6000fd5b505b8260a00151600001516004600086815260200190815260200160002060008282546121ee9190614607565b925050819055506001836101000190600481111561220f5761220e614181565b5b9081600481111561222357612222614181565b5b8152505061223c6122378460000151612a46565b61287e565b82600160008681526020019081526020016000206000820151816000015560208201518160010160006101000a81548173ffffffffffffffffffffffffffffffffffffffff021916908373ffffffffffffffffffffffffffffffffffffffff16021790555060408201518160020160006101000a81548173ffffffffffffffffffffffffffffffffffffffff021916908373ffffffffffffffffffffffffffffffffffffffff16021790555060608201518160030160008201518160000160006101000a81548173ffffffffffffffffffffffffffffffffffffffff021916908373ffffffffffffffffffffffffffffffffffffffff1602179055506020820151816001015560408201518160020160006101000a81548173ffffffffffffffffffffffffffffffffffffffff021916908373ffffffffffffffffffffffffffffffffffffffff16021790555060608201518160030155505060808201518160070160008201518160000160006101000a81548173ffffffffffffffffffffffffffffffffffffffff021916908373ffffffffffffffffffffffffffffffffffffffff1602179055506020820151816001015560408201518160020160006101000a81548173ffffffffffffffffffffffffffffffffffffffff021916908373ffffffffffffffffffffffffffffffffffffffff16021790555060608201518160030155505060a082015181600b016000820151816000015560208201518160010155505060c082015181600d015560e082015181600e015561010082015181600f0160006101000a81548160ff021916908360048111156124a1576124a0614181565b5b0217905550905050826040015173ffffffffffffffffffffffffffffffffffffffff16836020015173ffffffffffffffffffffffffffffffffffffffff1684600001517f6c3d9a1d8eb570e3d57c3f743d0a44569c2320e6165f486950de7bb33a353fc860405160405180910390a450505050565b60016020528060005260406000206000915090508060000154908060010160009054906101000a900473ffffffffffffffffffffffffffffffffffffffff16908060020160009054906101000a900473ffffffffffffffffffffffffffffffffffffffff1690806003016040518060800160405290816000820160009054906101000a900473ffffffffffffffffffffffffffffffffffffffff1673ffffffffffffffffffffffffffffffffffffffff1673ffffffffffffffffffffffffffffffffffffffff168152602001600182015481526020016002820160009054906101000a900473ffffffffffffffffffffffffffffffffffffffff1673ffffffffffffffffffffffffffffffffffffffff1673ffffffffffffffffffffffffffffffffffffffff16815260200160038201548152505090806007016040518060800160405290816000820160009054906101000a900473ffffffffffffffffffffffffffffffffffffffff1673ffffffffffffffffffffffffffffffffffffffff1673ffffffffffffffffffffffffffffffffffffffff168152602001600182015481526020016002820160009054906101000a900473ffffffffffffffffffffffffffffffffffffffff1673ffffffffffffffffffffffffffffffffffffffff1673ffffffffffffffffffffffffffffffffffffffff1681526020016003820154815250509080600b01604051806040016040529081600082015481526020016001820154815250509080600d01549080600e01549080600f0160009054906101000a900460ff16905089565b600060016000838152602001908152602001600020600f0160009054906101000a900460ff169050919050565b60606000808373ffffffffffffffffffffffffffffffffffffffff1673ffffffffffffffffffffffffffffffffffffffff16815260200190815260200160002080548060200260200160405190810160405280929190818152602001828054801561281a57602002820191906000526020600020905b815481526020019060010190808311612806575b50505050509050919050565b6060600380548060200260200160405190810160405280929190818152602001828054801561287457602002820191906000526020600020905b815481526020019060010190808311612860575b5050505050905090565b6003805490508110156129345760008190505b60016003805490506128a39190614607565b81101561290a5760036001826128b991906146ca565b815481106128ca576128c961463b565b5b9060005260206000200154600382815481106128e9576128e861463b565b5b90600052602060002001819055508080612902906146fe565b915050612891565b50600380548061291d5761291c614746565b5b600190038181906000526020600020016000905590555b50565b6000600481111561294b5761294a614181565b5b826101000151600481111561296357612962614181565b5b1461299a576040517f1cf3d4b400000000000000000000000000000000000000000000000000000000815260040160405180910390fd5b6129ad8260200151836040015183612e2c565b506129bb8260c00151612ed8565b505050565b612a418363a9059cbb60e01b84846040516024016129df929190614775565b604051602081830303815290604052907bffffffffffffffffffffffffffffffffffffffffffffffffffffffff19166020820180517bffffffffffffffffffffffffffffffffffffffffffffffffffffffff8381831617835250505050612f1d565b505050565b600080600090505b600380549050811015612a9c578260038281548110612a7057612a6f61463b565b5b906000526020600020015403612a895780915050612aa6565b8080612a94906146fe565b915050612a4e565b5060038054905090505b919050565b612ab433612fe4565b50612ac28260400151612fe4565b50612ad1338360400151613054565b50612aec82608001516000015183608001516040015161313b565b50612b07826080015160000151836080015160200151613222565b50612b22826080015160400151836080015160600151613222565b50612b3e826060015160000151338460600151602001516132a0565b50612b598260a00151600001518360a00151602001516133c5565b50612b74826060015160000151836060015160400151613417565b50612b8f826080015160000151836060015160000151613054565b50612baa826080015160000151836060015160400151613054565b50612bc5826080015160400151836060015160000151613054565b50612be0826080015160400151836060015160400151613054565b50612c048260800151602001518360a00151600001518460600151600001516134fa565b50612c288260800151606001518360a00151602001518460600151604001516134fa565b508160a00151600001518114612c6a576040517f30c7a58d00000000000000000000000000000000000000000000000000000000815260040160405180910390fd5b5050565b600081600001549050919050565b612cff846323b872dd60e01b858585604051602401612c9d93929190614693565b604051602081830303815290604052907bffffffffffffffffffffffffffffffffffffffffffffffffffffffff19166020820180517bffffffffffffffffffffffffffffffffffffffffffffffffffffffff8381831617835250505050612f1d565b50505050565b6001816000016000828254019250508190555050565b60036004811115612d2f57612d2e614181565b5b8261010001516004811115612d4757612d46614181565b5b14612d7e576040517f111eafa300000000000000000000000000000000000000000000000000000000815260040160405180910390fd5b612d8b8260c00151613585565b50612d9a8260200151826135ca565b505050565b612dad83604001518361363b565b50612dbb8360c00151612ed8565b50612ddb83606001516040015184604001518560600151606001516132a0565b50612df7836060015160400151308560600151606001516136ac565b50612e13836060015160000151308560600151602001516132a0565b50612e26818460a00151602001516137aa565b50505050565b60008173ffffffffffffffffffffffffffffffffffffffff168473ffffffffffffffffffffffffffffffffffffffff1614158015612e9657508173ffffffffffffffffffffffffffffffffffffffff168473ffffffffffffffffffffffffffffffffffffffff1614155b15612ecd576040517f36deda8700000000000000000000000000000000000000000000000000000000815260040160405180910390fd5b600190509392505050565b600042821015612f14576040517ffcdc12da00000000000000000000000000000000000000000000000000000000815260040160405180910390fd5b60019050919050565b6000612f7f826040518060400160405280602081526020017f5361666545524332303a206c6f772d6c6576656c2063616c6c206661696c65648152508573ffffffffffffffffffffffffffffffffffffffff166137f09092919063ffffffff16565b9050600081511115612fdf5780806020019051810190612f9f91906147d6565b612fde576040517f08c379a0000000000000000000000000000000000000000000000000000000008152600401612fd590614886565b60405180910390fd5b5b505050565b60008073ffffffffffffffffffffffffffffffffffffffff168273ffffffffffffffffffffffffffffffffffffffff160361304b576040517fe6c4247b00000000000000000000000000000000000000000000000000000000815260040160405180910390fd5b60019050919050565b60008073ffffffffffffffffffffffffffffffffffffffff168373ffffffffffffffffffffffffffffffffffffffff161480156130bd5750600073ffffffffffffffffffffffffffffffffffffffff168273ffffffffffffffffffffffffffffffffffffffff16145b156130cb5760019050613135565b8173ffffffffffffffffffffffffffffffffffffffff168373ffffffffffffffffffffffffffffffffffffffff1603613130576040517f9cbdca7200000000000000000000000000000000000000000000000000000000815260040160405180910390fd5b600190505b92915050565b60008073ffffffffffffffffffffffffffffffffffffffff168373ffffffffffffffffffffffffffffffffffffffff161480156131a45750600073ffffffffffffffffffffffffffffffffffffffff168273ffffffffffffffffffffffffffffffffffffffff16145b156131b2576001905061321c565b8173ffffffffffffffffffffffffffffffffffffffff168373ffffffffffffffffffffffffffffffffffffffff1603613217576040517f131b3bb000000000000000000000000000000000000000000000000000000000815260040160405180910390fd5b600190505b92915050565b60008073ffffffffffffffffffffffffffffffffffffffff168373ffffffffffffffffffffffffffffffffffffffff1614801561325f5750600082115b15613296576040517ff1eabe0a00000000000000000000000000000000000000000000000000000000815260040160405180910390fd5b6001905092915050565b60008073ffffffffffffffffffffffffffffffffffffffff168473ffffffffffffffffffffffffffffffffffffffff161415801561338357508273ffffffffffffffffffffffffffffffffffffffff168473ffffffffffffffffffffffffffffffffffffffff16636352211e846040518263ffffffff1660e01b815260040161332991906142dd565b602060405180830381865afa158015613346573d6000803e3d6000fd5b505050506040513d601f19601f8201168201806040525081019061336a91906148bb565b73ffffffffffffffffffffffffffffffffffffffff1614155b156133ba576040517f4b64ae4700000000000000000000000000000000000000000000000000000000815260040160405180910390fd5b600190509392505050565b600080831180156133d65750600082115b1561340d576040517ff34cfab600000000000000000000000000000000000000000000000000000000815260040160405180910390fd5b6001905092915050565b60008073ffffffffffffffffffffffffffffffffffffffff168373ffffffffffffffffffffffffffffffffffffffff16141580156134825750600073ffffffffffffffffffffffffffffffffffffffff168273ffffffffffffffffffffffffffffffffffffffff1614155b80156134b957508173ffffffffffffffffffffffffffffffffffffffff168373ffffffffffffffffffffffffffffffffffffffff16145b156134f0576040517fc8d3926400000000000000000000000000000000000000000000000000000000815260040160405180910390fd5b6001905092915050565b6000808414801561350b5750600083145b80156135435750600073ffffffffffffffffffffffffffffffffffffffff168273ffffffffffffffffffffffffffffffffffffffff16145b1561357a576040517ff34cfab600000000000000000000000000000000000000000000000000000000815260040160405180910390fd5b600190509392505050565b6000428211156135c1576040517f111eafa300000000000000000000000000000000000000000000000000000000815260040160405180910390fd5b60019050919050565b60008173ffffffffffffffffffffffffffffffffffffffff168373ffffffffffffffffffffffffffffffffffffffff1614613631576040517f85d1f72600000000000000000000000000000000000000000000000000000000815260040160405180910390fd5b6001905092915050565b60008173ffffffffffffffffffffffffffffffffffffffff168373ffffffffffffffffffffffffffffffffffffffff16146136a2576040517f86efbb5500000000000000000000000000000000000000000000000000000000815260040160405180910390fd5b6001905092915050565b60006136b784612fe4565b801561376857508273ffffffffffffffffffffffffffffffffffffffff168473ffffffffffffffffffffffffffffffffffffffff1663081812fc846040518263ffffffff1660e01b815260040161370e91906142dd565b602060405180830381865afa15801561372b573d6000803e3d6000fd5b505050506040513d601f19601f8201168201806040525081019061374f91906148bb565b73ffffffffffffffffffffffffffffffffffffffff1614155b1561379f576040517f6b2db6d000000000000000000000000000000000000000000000000000000000815260040160405180910390fd5b600190509392505050565b6000818310156137e6576040517f30c7a58d00000000000000000000000000000000000000000000000000000000815260040160405180910390fd5b6001905092915050565b60606137ff8484600085613808565b90509392505050565b60608247101561384d576040517f08c379a00000000000000000000000000000000000000000000000000000000081526004016138449061495a565b60405180910390fd5b6000808673ffffffffffffffffffffffffffffffffffffffff16858760405161387691906149eb565b60006040518083038185875af1925050503d80600081146138b3576040519150601f19603f3d011682016040523d82523d6000602084013e6138b8565b606091505b50915091506138c9878383876138d5565b92505050949350505050565b6060831561393757600083510361392f576138ef8561394a565b61392e576040517f08c379a000000000000000000000000000000000000000000000000000000000815260040161392590614a4e565b60405180910390fd5b5b829050613942565b613941838361396d565b5b949350505050565b6000808273ffffffffffffffffffffffffffffffffffffffff163b119050919050565b6000825111156139805781518083602001fd5b806040517f08c379a00000000000000000000000000000000000000000000000000000000081526004016139b49190614ab2565b60405180910390fd5b60405180610120016040528060008152602001600073ffffffffffffffffffffffffffffffffffffffff168152602001600073ffffffffffffffffffffffffffffffffffffffff168152602001613a12613a59565b8152602001613a1f613aad565b8152602001613a2c613b01565b8152602001600081526020016000815260200160006004811115613a5357613a52614181565b5b81525090565b6040518060800160405280600073ffffffffffffffffffffffffffffffffffffffff16815260200160008152602001600073ffffffffffffffffffffffffffffffffffffffff168152602001600081525090565b6040518060800160405280600073ffffffffffffffffffffffffffffffffffffffff16815260200160008152602001600073ffffffffffffffffffffffffffffffffffffffff168152602001600081525090565b604051806040016040528060008152602001600081525090565b6000604051905090565b600080fd5b600080fd5b6000819050919050565b613b4281613b2f565b8114613b4d57600080fd5b50565b600081359050613b5f81613b39565b92915050565b600060208284031215613b7b57613b7a613b25565b5b6000613b8984828501613b50565b91505092915050565b600073ffffffffffffffffffffffffffffffffffffffff82169050919050565b6000613bbd82613b92565b9050919050565b613bcd81613bb2565b8114613bd857600080fd5b50565b600081359050613bea81613bc4565b92915050565b600080fd5b600080fd5b6000601f19601f8301169050919050565b7f4e487b7100000000000000000000000000000000000000000000000000000000600052604160045260246000fd5b613c4382613bfa565b810181811067ffffffffffffffff82111715613c6257613c61613c0b565b5b80604052505050565b6000613c75613b1b565b9050613c818282613c3a565b919050565b600067ffffffffffffffff821115613ca157613ca0613c0b565b5b613caa82613bfa565b9050602081019050919050565b82818337600083830152505050565b6000613cd9613cd484613c86565b613c6b565b905082815260208101848484011115613cf557613cf4613bf5565b5b613d00848285613cb7565b509392505050565b600082601f830112613d1d57613d1c613bf0565b5b8135613d2d848260208601613cc6565b91505092915050565b60008060008060808587031215613d5057613d4f613b25565b5b6000613d5e87828801613bdb565b9450506020613d6f87828801613bdb565b9350506040613d8087828801613b50565b925050606085013567ffffffffffffffff811115613da157613da0613b2a565b5b613dad87828801613d08565b91505092959194509250565b60007fffffffff0000000000000000000000000000000000000000000000000000000082169050919050565b613dee81613db9565b82525050565b6000602082019050613e096000830184613de5565b92915050565b600080fd5b600060808284031215613e2a57613e29613e0f565b5b613e346080613c6b565b90506000613e4484828501613bdb565b6000830152506020613e5884828501613b50565b6020830152506040613e6c84828501613bdb565b6040830152506060613e8084828501613b50565b60608301525092915050565b600060808284031215613ea257613ea1613e0f565b5b613eac6080613c6b565b90506000613ebc84828501613bdb565b6000830152506020613ed084828501613b50565b6020830152506040613ee484828501613bdb565b6040830152506060613ef884828501613b50565b60608301525092915050565b600060408284031215613f1a57613f19613e0f565b5b613f246040613c6b565b90506000613f3484828501613b50565b6000830152506020613f4884828501613b50565b60208301525092915050565b60058110613f6157600080fd5b50565b600081359050613f7381613f54565b92915050565b60006102008284031215613f9057613f8f613e0f565b5b613f9b610120613c6b565b90506000613fab84828501613b50565b6000830152506020613fbf84828501613bdb565b6020830152506040613fd384828501613bdb565b6040830152506060613fe784828501613e14565b60608301525060e0613ffb84828501613e8c565b60808301525061016061401084828501613f04565b60a0830152506101a061402584828501613b50565b60c0830152506101c061403a84828501613b50565b60e0830152506101e061404f84828501613f64565b6101008301525092915050565b6000610200828403121561407357614072613b25565b5b600061408184828501613f79565b91505092915050565b61409381613b2f565b82525050565b6140a281613bb2565b82525050565b6080820160008201516140be6000850182614099565b5060208201516140d1602085018261408a565b5060408201516140e46040850182614099565b5060608201516140f7606085018261408a565b50505050565b6080820160008201516141136000850182614099565b506020820151614126602085018261408a565b5060408201516141396040850182614099565b50606082015161414c606085018261408a565b50505050565b604082016000820151614168600085018261408a565b50602082015161417b602085018261408a565b50505050565b7f4e487b7100000000000000000000000000000000000000000000000000000000600052602160045260246000fd5b600581106141c1576141c0614181565b5b50565b60008190506141d2826141b0565b919050565b60006141e2826141c4565b9050919050565b6141f2816141d7565b82525050565b6102008201600082015161420f600085018261408a565b5060208201516142226020850182614099565b5060408201516142356040850182614099565b50606082015161424860608501826140a8565b50608082015161425b60e08501826140fd565b5060a082015161426f610160850182614152565b5060c08201516142836101a085018261408a565b5060e08201516142976101c085018261408a565b506101008201516142ac6101e08501826141e9565b50505050565b6000610200820190506142c860008301846141f8565b92915050565b6142d781613b2f565b82525050565b60006020820190506142f260008301846142ce565b92915050565b6000806040838503121561430f5761430e613b25565b5b600061431d85828601613bdb565b925050602061432e85828601613b50565b9150509250929050565b61434181613bb2565b82525050565b60808201600082015161435d6000850182614099565b506020820151614370602085018261408a565b5060408201516143836040850182614099565b506060820151614396606085018261408a565b50505050565b6080820160008201516143b26000850182614099565b5060208201516143c5602085018261408a565b5060408201516143d86040850182614099565b5060608201516143eb606085018261408a565b50505050565b604082016000820151614407600085018261408a565b50602082015161441a602085018261408a565b50505050565b614429816141d7565b82525050565b600061020082019050614445600083018c6142ce565b614452602083018b614338565b61445f604083018a614338565b61446c6060830189614347565b61447960e083018861439c565b6144876101608301876143f1565b6144956101a08301866142ce565b6144a36101c08301856142ce565b6144b16101e0830184614420565b9a9950505050505050505050565b60006020820190506144d46000830184614420565b92915050565b6000602082840312156144f0576144ef613b25565b5b60006144fe84828501613bdb565b91505092915050565b600081519050919050565b600082825260208201905092915050565b6000819050602082019050919050565b600061453f838361408a565b60208301905092915050565b6000602082019050919050565b600061456382614507565b61456d8185614512565b935061457883614523565b8060005b838110156145a95781516145908882614533565b975061459b8361454b565b92505060018101905061457c565b5085935050505092915050565b600060208201905081810360008301526145d08184614558565b905092915050565b7f4e487b7100000000000000000000000000000000000000000000000000000000600052601160045260246000fd5b600061461282613b2f565b915061461d83613b2f565b9250828203905081811115614635576146346145d8565b5b92915050565b7f4e487b7100000000000000000000000000000000000000000000000000000000600052603260045260246000fd5b600061467582613b2f565b915060008203614688576146876145d8565b5b600182039050919050565b60006060820190506146a86000830186614338565b6146b56020830185614338565b6146c260408301846142ce565b949350505050565b60006146d582613b2f565b91506146e083613b2f565b92508282019050808211156146f8576146f76145d8565b5b92915050565b600061470982613b2f565b91507fffffffffffffffffffffffffffffffffffffffffffffffffffffffffffffffff820361473b5761473a6145d8565b5b600182019050919050565b7f4e487b7100000000000000000000000000000000000000000000000000000000600052603160045260246000fd5b600060408201905061478a6000830185614338565b61479760208301846142ce565b9392505050565b60008115159050919050565b6147b38161479e565b81146147be57600080fd5b50565b6000815190506147d0816147aa565b92915050565b6000602082840312156147ec576147eb613b25565b5b60006147fa848285016147c1565b91505092915050565b600082825260208201905092915050565b7f5361666545524332303a204552433230206f7065726174696f6e20646964206e60008201527f6f74207375636365656400000000000000000000000000000000000000000000602082015250565b6000614870602a83614803565b915061487b82614814565b604082019050919050565b6000602082019050818103600083015261489f81614863565b9050919050565b6000815190506148b581613bc4565b92915050565b6000602082840312156148d1576148d0613b25565b5b60006148df848285016148a6565b91505092915050565b7f416464726573733a20696e73756666696369656e742062616c616e636520666f60008201527f722063616c6c0000000000000000000000000000000000000000000000000000602082015250565b6000614944602683614803565b915061494f826148e8565b604082019050919050565b6000602082019050818103600083015261497381614937565b9050919050565b600081519050919050565b600081905092915050565b60005b838110156149ae578082015181840152602081019050614993565b60008484015250505050565b60006149c58261497a565b6149cf8185614985565b93506149df818560208601614990565b80840191505092915050565b60006149f782846149ba565b915081905092915050565b7f416464726573733a2063616c6c20746f206e6f6e2d636f6e7472616374000000600082015250565b6000614a38601d83614803565b9150614a4382614a02565b602082019050919050565b60006020820190508181036000830152614a6781614a2b565b9050919050565b600081519050919050565b6000614a8482614a6e565b614a8e8185614803565b9350614a9e818560208601614990565b614aa781613bfa565b840191505092915050565b60006020820190508181036000830152614acc8184614a79565b90509291505056fea2646970667358221220e55089a67f4d4830d1b34d5dc73315a1d16ab0dd31fd032a35328758419555fa64736f6c63430008110033",
  "linkReferences": {},
  "deployedLinkReferences": {}
}